{
    "_format": "hh-sol-artifact-1",
    "contractName": "PaymentSystem",
    "sourceName": "contracts/PaymentContract.sol",
    "abi": [
        {
            "anonymous": false,
            "inputs": [
                {
                    "indexed": true,
                    "internalType": "address",
                    "name": "from",
                    "type": "address"
                },
                {
                    "indexed": true,
                    "internalType": "address",
                    "name": "to",
                    "type": "address"
                },
                {
                    "indexed": false,
                    "internalType": "uint256",
                    "name": "amount",
                    "type": "uint256"
                }
            ],
            "name": "PaymentSent",
            "type": "event"
        },
        {
            "inputs": [
                {
                    "internalType": "address",
                    "name": "",
                    "type": "address"
                }
            ],
            "name": "balances",
            "outputs": [
                {
                    "internalType": "uint256",
                    "name": "",
                    "type": "uint256"
                }
            ],
            "stateMutability": "view",
            "type": "function"
        },
        {
            "inputs": [],
            "name": "getContractBalance",
            "outputs": [
                {
                    "internalType": "uint256",
                    "name": "",
                    "type": "uint256"
                }
            ],
            "stateMutability": "view",
            "type": "function"
        },
        {
            "inputs": [
                {
                    "internalType": "address",
                    "name": "recipient",
                    "type": "address"
                }
            ],
            "name": "sendPayment",
            "outputs": [],
            "stateMutability": "payable",
            "type": "function"
        },
        {
            "inputs": [
                {
                    "internalType": "uint256",
                    "name": "amount",
                    "type": "uint256"
                }
            ],
            "name": "withdrawPayment",
            "outputs": [],
            "stateMutability": "nonpayable",
            "type": "function"
        }
    ],
    "bytecode": "0x6080604052348015600f57600080fd5b5061062a8061001f6000396000f3fe60806040526004361061003f5760003560e01c806327e235e3146100445780636f9fb98a146100815780638a7644a8146100ac578063dbd3cd62146100c8575b600080fd5b34801561005057600080fd5b5061006b60048036038101906100669190610394565b6100f1565b60405161007891906103da565b60405180910390f35b34801561008d57600080fd5b50610096610109565b6040516100a391906103da565b60405180910390f35b6100c660048036038101906100c19190610394565b610111565b005b3480156100d457600080fd5b506100ef60048036038101906100ea9190610421565b610211565b005b60006020528060005260406000206000915090505481565b600047905090565b60003411610154576040517f08c379a000000000000000000000000000000000000000000000000000000000815260040161014b906104d1565b60405180910390fd5b346000808373ffffffffffffffffffffffffffffffffffffffff1673ffffffffffffffffffffffffffffffffffffffff16815260200190815260200160002060008282546101a29190610520565b925050819055508073ffffffffffffffffffffffffffffffffffffffff163373ffffffffffffffffffffffffffffffffffffffff167fd52bd61f7c422d441e024604f4517878fd3305d6acf0fe37baef23ed21af6bc93460405161020691906103da565b60405180910390a350565b806000803373ffffffffffffffffffffffffffffffffffffffff1673ffffffffffffffffffffffffffffffffffffffff168152602001908152602001600020541015610292576040517f08c379a0000000000000000000000000000000000000000000000000000000008152600401610289906105a0565b60405180910390fd5b3373ffffffffffffffffffffffffffffffffffffffff166108fc829081150290604051600060405180830381858888f193505050501580156102d8573d6000803e3d6000fd5b50806000803373ffffffffffffffffffffffffffffffffffffffff1673ffffffffffffffffffffffffffffffffffffffff168152602001908152602001600020600082825461032791906105c0565b9250508190555050565b600080fd5b600073ffffffffffffffffffffffffffffffffffffffff82169050919050565b600061036182610336565b9050919050565b61037181610356565b811461037c57600080fd5b50565b60008135905061038e81610368565b92915050565b6000602082840312156103aa576103a9610331565b5b60006103b88482850161037f565b91505092915050565b6000819050919050565b6103d4816103c1565b82525050565b60006020820190506103ef60008301846103cb565b92915050565b6103fe816103c1565b811461040957600080fd5b50565b60008135905061041b816103f5565b92915050565b60006020828403121561043757610436610331565b5b60006104458482850161040c565b91505092915050565b600082825260208201905092915050565b7f5061796d656e7420616d6f756e742073686f756c64206265206d6f726520746860008201527f616e207a65726f00000000000000000000000000000000000000000000000000602082015250565b60006104bb60278361044e565b91506104c68261045f565b604082019050919050565b600060208201905081810360008301526104ea816104ae565b9050919050565b7f4e487b7100000000000000000000000000000000000000000000000000000000600052601160045260246000fd5b600061052b826103c1565b9150610536836103c1565b925082820190508082111561054e5761054d6104f1565b5b92915050565b7f496e73756666696369656e742062616c616e6365000000000000000000000000600082015250565b600061058a60148361044e565b915061059582610554565b602082019050919050565b600060208201905081810360008301526105b98161057d565b9050919050565b60006105cb826103c1565b91506105d6836103c1565b92508282039050818111156105ee576105ed6104f1565b5b9291505056fea264697066735822122042072d10df1987af6cabf45beae7bbbd77d7f696989bbba0a9554c2c840a3f5a64736f6c634300081b0033",
    "linkReferences": {},
    "deployedLinkReferences": {}
}